:020000040800F2
:10000000000001204D0800082D0800082D080008F8
:100010002D0800082D0800082D0800080000000029
:100020000000000000000000000000002D08000893
:100030002D080008000000002D0800083108000805
:100040002D0800082D0800082D0800082D080008BC
:100050002D0800082D080008A9030008C90300089E
:10006000E9030008090400082D0800082D0800080D
:100070002D0800082D0800082D0800082D0800088C
:100080002D0800082D0800082D0800082D0800087C
:100090002D0800082D0800082D0800082D0800086C
:1000A0002D0800082D0800082D0800082D0800085C
:1000B0002D0800082D0800082D0800082D0800084C
:1000C0002D0800082D0800082D0800082D0800083C
:1000D0002D080008790E0008D90E00082D08000828
:1000E0002D0800082D0800082D0800082D0800081C
:1000F0002D0800082D0800082D0800082D0800080C
:100100002D0800082D0800082D0800082D080008FB
:100110002D0800082D0800082D0800082D080008EB
:100120002D0800082D0800082D0800082D080008DB
:100130002D0800082D0800082D0800082D080008CB
:100140002D0800082D0800082D08000801150008DA
:100150002D0800082D0800082D0800083D0F000894
:100160002D0800082D0800082D0800082D0800089B
:100170002D0800082D0800082D0800082D0800088B
:080180002D0800082D080008FD
:100188000146002001F05AB808B5002001F01CF81B
:10019800003818BF012008BD08B5002001F088F814
:1001A80008BD00BF3AB1431E0A4411F801CB03F859
:1001B80001CF9142F9D1704732B1C9B20244034626
:1001C80003F8011B9342FBD1704700BF70B5038849
:1001D800C0B0D9B27E22A1F17D058DF80020012D95
:1001E800B0F80320B0F9054067D98DF80110022551
:1001F8001E0AA6F17D0CBCF1010FC3F3072305F11C
:10020800010151D90DF805308378A3F17D05012D41
:1002180001F101003FD90DF80130D1B2A1F17D05FE
:10022800012D00F101032DD90DF80010C2F30725A7
:10023800120AA2F17D00012803F1010158D90DF835
:100248000350E2B2A2F17D00012801F1010346D971
:100258000DF80120C4F30722A2F17D01012903F161
:10026800010633D90DF803207E230DF806306C46BD
:10027800002514F8010B0135FFF782FFAE42F8DACA
:1002880040B070BD81F020017D250DF800500DF8BB
:100298000310831CCAE783F020037D250DF8015065
:1002A8000DF80030881CB8E786F020067D230DF88D
:1002B80005300DF80160A91CA6E781F020018DF832
:1002C80002107D218DF80110032591E77D2182F030
:1002D80020020DF803100DF806209E1CC4E782F0DA
:1002E80020027D200DF801000DF803208B1CB1E7DA
:1002F80082F020027D200DF803000DF80120991CE2
:100308009FE700BF30B5104C23884FF6FF759BB2AE
:10031800AB42C1B015D04FF4807200216846FFF798
:100328004BFF00232288ADF8005068468DF8023054
:10033800ADF803208DF805308DF80630FFF746FF3D
:100348002580002041B030BD0000002000B54FF0EE
:10035800000E62F3070E62F30F2E00F1A00C01E00D
:10036800604504D0036802460830002BF8D1A2F893
:1003780004E011605DF804FB844600F1A0016346C7
:1003880002E008339942FAD01A68002AF7D058795F
:100398000138C0B258710028F3D119795971104742
:1003A80008B5012000F0ECFA00B908BD034B102293
:1003B8001A800120BDE8084000F0ECBA00000020D7
:1003C80008B5022000F0DCFA00B908BD034B112281
:1003D8001A800220BDE8084000F0DCBA00000020C6
:1003E80008B5042000F0CCFA00B908BD034B12226E
:1003F8001A800420BDE8084000F0CCBA00000020B4
:1004080008B5082000F0BCFA00B908BD034B132258
:100418001A800820BDE8084000F0BCBA000000209F
:1004280010B5022884B04FF0000402D880000830CC
:10043800C4B20121084600F063FB01214FF480405B
:1004480000F082FB0021084600F096FB0123002201
:1004580002A802938DF80C208DF80E308DF80D400F
:1004680000F056FA034B019301A800F0ABF904B071
:1004780010BD00BF0601010110B5022884B04FF07D
:10048800000402D880000830C4B20121084600F0F8
:1004980037FB01214FF4804000F056FB012100207A
:1004A80000F06AFB0221002202A8012302918DF8C4
:1004B8000C208DF80E308DF80D4000F029FA034B12
:1004C800019301A800F07EF904B010BD07010101F5
:1004D80010B5022884B04FF0000402D8800008301C
:1004E800C4B20121084600F00BFB01214FF4804003
:1004F80000F02AFB0221002000F03EFB042100222C
:1005080002A8012302918DF80C208DF80E308DF889
:100518000D4000F0FDF9034B019301A800F052F9DA
:1005280004B010BD0801010110B5022884B04FF0D5
:10053800000402D880000830C4B20121084600F047
:10054800DFFA01214FF4804000F0FEFA0321002079
:1005580000F012FB0821002202A8012302918DF865
:100568000C208DF80E308DF80D4000F0D1F9034BBA
:10057800019301A800F026F904B010BD090101019A
:10058800A0F58853013B0846032B0BD8DFE803F09E
:1005980008060402FFF7C8BFFFF79ABFFFF76CBF52
:1005A800FFF73EBF704700BF10B58378012B0446A4
:1005B80007D0022B1BD07BB14FF0FF336371A371BF
:1005C80010BDB0F80330A3F58053013B032BF3D8DB
:1005D800DFE803F051493E33B0F80330A3F5805308
:1005E800013B032B4FD8DFE803F0221C160AB0F9B1
:1005F8000510B0F80300BDE81040FFF7C1BF23485D
:10060800082100F017FA00B2A4F805002046BDE85A
:100618001040FFF7DBBD1D48042100F00BFA00B2C3
:10062800F2E71A48022100F005FA00B2ECE7174891
:10063800012100F0FFF900B2E6E7B0F905301448EF
:10064800012B4FF400710AD0BDE8104000F0FAB950
:10065800B0F905300E48012B4FF48071F4D1BDE894
:10066800104000F0EDB9B0F905300948012B4FF002
:100678008001E9D1F3E7B0F905300548012B4FF0C7
:100688004001E1D1EBE74FF0FF30BDE70000024049
:1006980000040240F0B5C3B000264FF48072002178
:1006A80002A8FFF789FD02AD374634460CE00FB1CA
:1006B80080F020000DF806000136062E4FF00007E6
:1006C80011DCB4F5807F12D0FFF766FDC0B27E283A
:1006D80005F8010B04F10104F3D07D28E7D1062EBB
:1006E8004FF00107EDDDFFF757FD02AB1855072264
:1006F800694602A8FFF756FD02A8FFF755FF43B069
:10070800F0BD00BF08B5FFF73FFD08B9002008BDE0
:10071800FFF7C0FF002008BD00B5012183B002200B
:1007280000F0EEF94FF47072012304486946CDE9F0
:10073800002300F035F903B05DF804FB0004024023
:1007480000B5012183B0084600F0DAF90F224FF016
:10075800007304486946CDE9002300F021F903B08D
:100768005DF804FB0000024000B5A9B0A0220021FA
:100778006846FFF721FDFFF7CFFFFFF7E1FF0022F3
:100788004FF4E131104600F007FC07490A22684699
:10079800FFF7DCFD054914226846FFF7D7FD6846D8
:1007A800FFF7EAFDFBE700BF0D0300080D0700088F
:1007B800034B40F0BF6040F40030D860704700BF82
:1007C80000ED00E010B50278C378012102F01F04A3
:1007D8004FEA521EA140DBB1104B4478DB686FEA48
:1007E800030CCCF3022C8378CCF10400C0B204FAD9
:1007F80000F00F2444FA0CF4C0B223400343084825
:100808001B010244DBB282F8003340F82E1010BD01
:10081800034B0EF1200E43F82E1010BD00ED00E042
:1008280000E100E0704700BF10B4054CD4E9002394
:10083800501C43F10001C4E900015DF8044B704706
:100848003801002008B51D4A1D4B93420CD2013ACD
:10085800D21A22F0030204321A491A4451F8040B3E
:1008680043F8040B9342F9D1174B184A93420AD222
:10087800013AD21A22F0030204321A44002143F842
:10088800041B9342FBD100F03FFA00F0B9FA104B79
:1008980010491B681048A1FB03134FF0E0229B0985
:1008A800013B53614FF0F00C0021072380F823C06F
:1008B80091611361FFF758FFFEE700BF3801002080
:1008C800000000206832000838010020941500203C
:1008D80024000020D34D621000ED00E008492DE906
:1008E8003008D1E90045D1E900BCBBEB04026CEB50
:1008F8000503824273F10003F5D3BDE83008704761
:100908003801002072B6704762B6BFF36F8F704728
:100918000379827930B4046803F1804303F59E3388
:10092800E143F2B1154A15680D4015605568294034
:1009380051601968214319609168036821EA03012D
:100948009160D16821EA0301D160417910290DD065
:1009580001F1804202F59E3230BC11680B431360EE
:1009680070471A680A4030BC1A607047916819438A
:100978009160D1680B4330BCD3607047003C0140A4
:10098800034B5B69184214BF01200020704700BF69
:10099800003C0140014B5861704700BF003C0140DA
:1009A80000222DE9F04713460D684FF0010E03268B
:1009B80004E00133102B02F1020239D00EFA03FCD5
:1009C8003CEA0504F5D1076806FA02F427EA0407A9
:1009D80007600F79D0F800A007FA02F9013F49EA49
:1009E8000A09012FA046C0F800906FEA040411D844
:1009F80087683C4084604C79876894403C438460B5
:100A0800446824EA0C0444608C7947689C40A4B28A
:100A18003C434460C46824EA0804C460CC79C768CD
:100A2800944001333C43102BC46002F10202C5D14B
:100A3800BDE8F0870369194214BF01200020704700
:100A48008161704709048161704700BFCB0800EBE2
:100A5800830001F00701036A89004FF00F0C0CFABC
:100A680001FC23EA0C030362036A8A401A43026208
:100A7800704700BF1E4A936803F00C03042B10B4A0
:100A88001BD0082B1BD01B4B194A036094681A49CA
:100A9800C4F303140C5DE34043609468C4F38224F8
:100AA8000C5D23FA04F4846092685DF8044BC2F389
:100AB80042328A5CD340C3607047104BE4E7536806
:100AC800516813F4800F536814BF0C4A094AC3F3E2
:100AD800881301F03F01B2FBF1F202FB03F3044A71
:100AE8005268C2F3014201325200B3FBF2F3CBE782
:100AF800003802400024F4000400002040787D0102
:100B0800044A136B11B103431363704723EA0003CC
:100B18001363704700380240044A536B11B1034312
:100B28005363704723EA0003536370470038024059
:100B3800044A136C11B103431364704723EA00039A
:100B48001364704700380240044A536C11B10343E0
:100B58005364704723EA0003536470470038024027
:100B6800044A136A11B103431362704723EA00036E
:100B7800136270470038024001F0FC0303F1804320
:100B880003F59C3301F003019A6889004FF00F0CBC
:100B98000CFA01FC22EA0C029A609A688840104319
:100BA800986070470269CB8822F4405213439BB285
:100BB80030B58A89036104468B8808890D4603434A
:100BC800E168688921F4B051034321F00C019BB21C
:100BD8000B439BB2E360636923F4407313439BB2F6
:100BE80085B063616846FFF745FF1C4B9C4205D002
:100BF80003F580639C4201D0029B00E0039BE168FF
:100C08002A68E5680804164803EB83034CBF5200C2
:100C1800920003EB8303B3FBF2F3A0FB0321490922
:100C28004FF0640C0A010CFB113329040AD5DB00D0
:100C38003233A0FB0303C3F3421313439BB2A360F5
:100C480005B030BD1B013233A0FB0303C3F34313CC
:100C580013439BB2A36005B030BD00BF0010014034
:100C68001F85EB51C36819B143F40053C360704743
:100C78004DF6FF721340C360704700BFC1F308010F
:100C8800416070474068C0F30800704701F01F0CCE
:100C9800C1F342110123012903FA0CF30DD00229F3
:100CA8000CBF103014301AB1026813430360704748
:100CB800026822EA0303036070470C30F3E700BFC1
:100CC8000368194214BF012000207047C1F3421283
:100CD80001F01F0C0123012A03FA0CF310D0022A99
:100CE8000CBF02694269134002683BB1090A01233B
:100CF8008B40134214BF01200020704718467047EC
:100D0800C2681340F0E700BF3848394AD0F8883045
:100D180043F47003C0F888301368002143F00103DE
:100D2800136091601368A0F1BC2023F0847323F44E
:100D38008033F03813605060136882B023F4802346
:100D48001360D16000910191136843F480331360FC
:100D580003E0009BB3F5A04F09D0136803F40033F8
:100D68000193009B01330093019B002BF1D0204B92
:100D78001B6813F4003318BF01230193019B012B57
:100D880005D01A4B4FF000629A6002B07047184BBA
:100D980018491A6C184842F080521A640A6842F4DA
:100DA80040420A609A689A609A689A609A6842F41F
:100DB80080529A6058601A6842F080721A601A6805
:100DC8009201FCD50D4A40F202611160996821F048
:100DD80003019960996841F00201A2F58062996067
:100DE800936803F00C03082BFAD1CAE700ED00E082
:100DF800003802400070004019544107003C02408E
:100E0800164A936803F00C03042B0CD0082B0CD063
:100E1800134B124A134892681349C2F30312825CB7
:100E2800D3400B607047114BF3E75368516813F4D4
:100E3800800F536814BF0D4A094AC3F3881301F0A1
:100E48003F01B2FBF1F202FB03F3044A5268C2F31A
:100E5800014201325200B3FBF2F3DAE700380240F4
:100E68000024F400140000202400002040787D01B4
:100E780038B5154D154C144840F22551FFF726FF9B
:100E880003462846FBB1FFF7FDFEB4F88230B4F8FC
:100E98008020013303F07F0392B29342C0B20CD09A
:100EA800B4F8822092B2A054A4F88230B4F8843006
:100EB80001339BB2A4F88430DDE7D4F888300133DD
:100EC800C4F88830D7E738BD001001404001002041
:100ED80038B5164D164C154840F22551FFF7F6FE69
:100EE800034628460BB3FFF7CDFEB4F81231B4F829
:100EF8001021013303F07F0392B29342C0B20ED0A7
:100F0800B4F8122114FA82F282F89000A4F812318F
:100F1800B4F8143101339BB2A4F81431DBE7D4F8E8
:100F280018310133C4F81831D5E738BD0044004002
:100F38004001002038B5164D164C154840F2255191
:100F4800FFF7C4FE034628460BB3FFF79BFEB4F831
:100F5800A231B4F8A021013303F07F0392B2934287
:100F6800C0B20ED0B4F8A22114FA82F282F820019D
:100F7800A4F8A231B4F8A43101339BB2A4F8A43187
:100F8800DBE7D4F8A8310133C4F8A831D5E738BD78
:100F9800001401404001002030B50D468BB01446C6
:100FA800062805D8DFE800F096693A04040408002A
:100FB8004FF0FF300BB030BD01210846FFF7A0FD10
:100FC80001212020FFF7C0FD6E4808220B21FFF702
:100FD8003DFD6C4808220C21FFF738FD6A4B6B4831
:100FE8004FF4C05204A9CDE90423FFF7D9FC00232C
:100FF8004FF440226648069506A9CDE90732ADF8B8
:101008002430FFF7CFFD002C00F0A98060480121B3
:10101800FFF728FE5F4B83F88C4077E001210846F4
:10102800FFF76EFD01214FF40030FFF781FD5548B1
:1010380007220221FFF70AFD524807220321FFF782
:1010480005FD514B4F480C2204A9CDE90423FFF7B5
:10105800A7FC00234FF440224F48069506A9CDE986
:101068000732ADF82430FFF79DFD002C64D04A48C4
:101078000121FFF7F7FD494BCDE701210220FFF7DA
:101088003FFD01211020FFF75FFD4548072206219B
:10109800FFF7DCFC072211464148FFF7D7FC3A4B23
:1010A8003F48C02204A9CDE90423FFF779FC0023B7
:1010B8004FF440223B48069506A9CDE90732ADF822
:1010C8002430FFF76FFD24B336480121FFF7CAFD2E
:1010D800354BA0E701210846FFF712FD4FF4004504
:1010E8002848012404A9CDE90454FFF759FC2946EE
:1010F8002448FFF7A5FC6420FFF7F0FB2B4900917B
:101108002B4B2C4A2C48214601F010FD00200BB037
:1011180030BD2448012240F22551FFF7B7FD274B87
:10112800039303A8FFF74EFB1F4BA3F88040A3F8D7
:101138008240A3F88440C7E71748012240F22551AE
:10114800FFF7A4FD1E4B039303A8FFF73BFB164BC9
:10115800A3F81041A3F81241A3F8144187E70C48FB
:10116800012240F22551FFF791FD164B039303A886
:10117800FFF728FB0C4BA3F8A041A3F8A241A3F862
:10118800A44143E7000002400202000100080240B7
:10119800001401406002002000440040D0010020FB
:1011A8000004024000100140400100201C01002002
:1011B8002800002000010020F00200202500000186
:1011C800260000014700000108B5062805D8DFE819
:1011D80000F0251F120404040600002008BD114871
:1011E8002021FFF76DFD104B93F88C2062B1003879
:1011F80018BF012008BD0D482021FFF761FD0C4BE9
:1012080093F88C20002AF2D1B3F8840080B208BD8C
:1012180008482021FFF754FD074BE5E701F044FBA0
:1012280008BD00BF001401406002002000440040D7
:10123800D0010020001001404001002010B50C46EC
:10124800062829D8DFE800F029041C2828281000DF
:1012580014488021FFF734FD0028F9D021461148B1
:10126800BDE81040FFF70ABD0F488021FFF728FDB1
:101278000028F9D021460C48BDE81040FFF7FEBC15
:101288000A488021FFF71CFD0028F9D021460748AD
:10129800BDE81040FFF7F2BC10BDBDE8104008469D
:1012A80001F0F0BA00100140001401400044004071
:1012B80030B583B006280FD8DFE800F0046A3E0E88
:1012C8000E0E11000DF1070001F0FAFA0028F9D00E
:1012D8009DF8070003B030BD002003B030BD554C69
:1012E80094F8AC51002D40F08180B4F8A021B4F8F6
:1012F800A23192B29BB29A42F7D0FFF703FBB4F83F
:10130800A021B4F8A23192B29BB29A4269D0B4F843
:10131800A03114FA83F393F82051B4F8A0310133C3
:1013280003F07F03A4F8A031B4F8A431013B9BB2C9
:10133800EDB2A4F8A43154E03E4C94F81C51002DB1
:101348006CD1B4F81021B4F8123192B29BB29A421F
:10135800F7D0FFF7D7FAB4F81021B4F8123192B2E7
:101368009BB29A423DD0B4F8103114FA83F393F843
:101378009050B4F81031013303F07F03A4F8103112
:10138800B4F81431013B9BB2EDB2A4F8143128E053
:10139800284C94F88C50002D34D1B4F88020B4F83F
:1013A800823092B29BB29A42F7D0FFF7ABFAB4F808
:1013B8008020B4F8823092B29BB29A4211D0B4F82D
:1013C80080309BB2E55CB4F88030013303F07F03D2
:1013D800A4F88030B4F88430013B9BB2EDB2A4F895
:1013E80084308DF80750FFF78FFA71E7124C2021EF
:1013F8002046FFF765FC0028F9D00F48FFF742FCAC
:10140800C0B267E70D4C20212046FFF759FC0028A1
:10141800F9D00A48FFF736FCC0B25BE7084C202138
:101428002046FFF74DFC0028F9D00548FFF72AFCB5
:10143800C0B24FE7400100200014014000100140F5
:101448000044004030B50121204C83B00846FFF726
:1014580057FB40F20223694620464FF4D852CDE9A3
:101468000023FFF79DFA20460A220821FFF7EEFA2B
:1014780020460A220921FFF7E9FA20460A220B2111
:10148800FFF7E4FA0A2220460C21FFF7DFFA4FF4AF
:10149800806301256946204600934FF48173ADF8B7
:1014A80005308DF80750FFF77BFA0A2211462046CF
:1014B800FFF7CCFA29468020FFF72EFB29464FF08C
:1014C8008050FFF74DFB03B030BD00BF0000024065
:1014D80000B54FF4C06083B0FFF76AF9034B01937E
:1014E80001A8FFF76FF903B05DF804FB430103019E
:1014F800704700BF704700BF014800F077BD00BFCC
:10150800F002002030B583B00023124C0193054649
:101518000320FFF7EDFFEB68013C1A69019216D032
:10152800019A002AF4DA01990A4A41F0010101916D
:101538000199196119690191013A02D00199C90704
:10154800F8D4032003B0BDE83040FFF7D1BF03B0A3
:1015580030BD00BF410D030030B4C4786CB900EB56
:10156800820003339A10D0F8D05006D023460133B6
:1015780051F8040B28609A42F9D1002030BC70471A
:1015880010B502F1030E5FEAAE0ED0F8D0400AD0D3
:101598008C460023013322684CF8042B9E45F9D170
:1015A80001EB8E0010BD084610BD00BF012240238C
:1015B80091422DE9F0414280838057D0002941D0E3
:1015C8004378067800224FF40061C0E90321002B1C
:1015D80061D09E464FF460654FF488674FF4806889
:1015E80002F5106300F1140C00214CF8043F01319E
:1015F80003F500747145CCF83C4003F12003F4D3A3
:10160800C0F81480C0F8CC70BEB100F18C0302F5AC
:10161800A061B40003EB860C43F8041F9C4501F15C
:101628002001F9D100F1CC0302F58052191943F8D1
:10163800042F994202F58052F9D1C0F80C510020CC
:10164800BDE8F0814FF4A063C380174BC17240F22C
:101658000C62164D164FDFF86C80164902804FF069
:10166800060E0C261A46C0E90331B9E702234FF4E7
:10167800A0724FF4816403724FF0A043C172C2801C
:101688000D4D0E4FDFF840800D4904804FF0040ED9
:1016980008261A46E7E74FF460654FF488671A464C
:1016A8004FF48068ACE700BF00000440000E04401F
:1016B8004004044000080440000E0050400400505C
:1016C80000080050000404400004005038B5037AB4
:1016D800C268012B04464FF000051AD1956B417A78
:1016E8006FF3104591B163F314559563D36823F4F0
:1016F800940323F0D80343F01003D3602046FFF788
:1017080001FFE378012B2CD0002038BDC5F300532E
:10171800E9E7D36843F04003D360FFF7F3FE237A89
:10172800627AE168A3F10303B3FA83F35B09003A31
:101738004FEA430318BF012243F00D0343EA0213A3
:1017480063F317458D631420FFF7D4FE217AE2680E
:101758000329D36812D0D360E378012BD4D1E16890
:1017680002E0E1682A238B608B6823F03E0242F096
:101778002A0262F307038B60002038BD43F48033EC
:10178800D360156B0A4B03EA154343F4A15343F0A6
:101798000D0363F31F451563C820FFF7ABFEE3682D
:1017A80045F400051D63C820FFF7A4FED4E700BF79
:1017B80000E3FFFF03460020DA68936843F0010363
:1017C8009360704703460020DA68936823F00103AA
:1017D8009360704700B583B000230193019B43F0E9
:1017E80020030193019B61F38A130193C168019A55
:1017F800074B0A610A690192013B02D0019A9206DD
:10180800F8D40320FFF774FE002003B05DF804FB52
:10181800410D030010B5C468E368C3F3076222F002
:101828006002012962F31F6308D009B943F08043BD
:101838003220E360FFF75EFE002010BD43F0005346
:10184800F6E700BFC3685869C04300F0010070475D
:10185800C36858699B691840704700BF10B4C368D3
:101868000B4C4FF0FF3102460020986159615960D6
:1018780059619C61D178074A9C69B1FA81F149099B
:1018880042EA011222439A615DF8044B704700BF97
:10189800000800800C383C40F0B504460020D4F81D
:1018A8000C31226918601368E16860F3CC23136077
:1018B800E37A012B83B011D113683E4843F0030348
:1018C800136080253C4B4D623C4A8862C1F8043164
:1018D8004FF4A073C1F80821C1F80C31002301931B
:1018E800019B43F020030193019A354B102060F3CC
:1018F8008A120192019A0A610A690192013B02D097
:10190800019A9006F8D40320FFF7F2FD0023009314
:10191800009BE16843F010030093009A284B0A618A
:101928000A690092013B02D0009AD206F8D403203B
:10193800FFF7DEFD266900254FF0FF33356175613D
:10194800B361F561607830B304F114024FEA800C9A
:10195800FF2702EB800052F8043F19680029B4BF42
:101968004FF090410021824219601D619F60F2D1C1
:1019780004F1500202EB0C000027FF2552F8043F47
:1019880019680029B4BF4FF09041002190421960B6
:101998001F619D60F2D1336943F480733361E3784A
:1019A800012B01D1074B33632046FFF757FF002077
:1019B80003B0F0BD80002000A000800020012000BE
:1019C800410D03000301810003699868C0F34100D9
:1019D80002281DBF20F00200C0F10300C0B20120A0
:1019E800704700BF036981699A680868C2F34102B9
:1019F800022A0CBF0322002262F30A0008605A6818
:101A080042F4807200205A60704700BF30B491F8E9
:101A180000C04C78012303FA0CF300EB8C0C012C6A
:101A28000CBFDCF81840DCF8544025689BB24FF036
:101A380000020CBF63F30F0263F31F422B0415D49B
:101A48008B6891F803C0C988C3F30A0343F0805335
:101A580043F400430CF0030C01F00F0143EA8C43FC
:101A680043EA8153054929400B4323600369D96937
:101A78000A43002030BCDA61704700BF007833ECBD
:101A88000A7891F801C00123934000EB82029BB2CF
:101A9800BCF1010F4FF000010BBF63F30F0163F3BB
:101AA8001F419369536D026900201860D36923EAC6
:101AB8000103D361704700BF2DE9F0474D780A78DC
:101AC8004B6991F803C0012D2CD000EB82028F687E
:101AD800556DC7F312022C682E690BB33B44013BCA
:101AE800B3FBF7F3C3F3090707FB02F23B46C2F364
:101AF800120242EAC34262F31C062E61C378012B2C
:101B080004BF0B696B61BCF1010F3CD0C4F30763E0
:101B180063F07B0363F31F642C600020BDE8F0874B
:101B28000123E6E700EB8208D8F818703C683E69A4
:101B380073BB06F0604646F400263E61C278012A6F
:101B48005ED0BCF1010F44D10069806810F4807F39
:101B5800C4F307600CBF60F05B0060F06B0060F3DB
:101B68001F643C60002AD8D198B203308010D8F89E
:101B7800D040D2D0C9681346013351F8042B2260F3
:101B88009842F9D1C9E74B796BB344F00054BDE7EB
:101B9800D1F808A006F060491E4E0AEB030E0EF1BC
:101BA800FF3EBEFBFAFE06EACE4EC3F312064EEA2D
:101BB800060E4EEA090EBCF1010F764616D0C7F89C
:101BC80010E0C378012B21D0036995405A6B154367
:101BD8005D63C4F3076363F07B0363F31F643C60D6
:101BE8000020BDE8F08744F080548FE76CF35E7600
:101BF8003E61C278012AA7D10A697A610122A3E766
:101C08000A697A61BCF1010FF8D0E2E70B697B61E0
:101C1800DFE700BF0000F81F30B44B784C69012B98
:101C280082B026D00B7800EB83035D6D2A682B69A0
:101C380000938B68DCB9009C03F07F0324F4C01C7C
:101C480043F400232CF07F0C43EA0C032B61C37888
:101C5800012B04BF0B696B61C2F3076363F07B035D
:101C680063F31F622A60002002B030BC70474B61EA
:101C7800E1E785692A682B69009304BB009B23F47C
:101C8800C01344F4002423F07F0323432B61009303
:101C9800C378012B1CD0C2F3076464F07B0464F39F
:101CA8001F622A60002BDED14B69002BDBD0026952
:101CB8000878516B012383400B435363D3E78B6848
:101CC800A3423ABF4B6103F07F0404F07F04D5E7D9
:101CD8000B780C6900EB8301C2F30763896963F031
:101CE8007B0363F31F6200204C612A6002B030BCA2
:101CF800704700BF4B780A78012B00EB820006D0B2
:101D0800426D136843F40013136000207047806924
:101D180008490268002AA8BFC2F380739B0301EA3E
:101D2800124143F020030B4363F31F42026000207B
:101D3800704700BFDFBFFFFF0B784A7800EB8300D6
:101D4800012A0CBF8069406DCA780368023A012AEB
:101D58006FF355538CBFC3F30072012262F31C73F7
:101D680003600020704700BF03699869DB69184069
:101D7800000C704700EB810103694A6D90685B694C
:101D88001840704703699869DB69184080B270474A
:101D9800436D064A1A61C278012A06D100F5B96076
:101DA80058614FF0802219681A607047180008C0FF
:101DB800F8B50646FFF7FAFB75780120A6F8120178
:101DC8004DB30021334632460C46402782F818119D
:101DD800A2F81E110131A942C2E9487482F819011A
:101DE80082F81B41C2F82C4102F12802EED10022F0
:101DF8001146402083F87023A3F876230132AA42C3
:101E0800C3E9DE0183F8711383F87313C3F88413ED
:101E180003F12803EED13046FFF7D4FC3046FFF734
:101E280055FC00213046FFF7F5FC3046FFF734FD3E
:101E38003046BDE8F840FFF7BDBC00BF11F0800F89
:101E480008B58C4619D10CEB8C0E00EBCE0E282170
:101E580001FB0C01CEF87823002201F55C718EF8A5
:101E680070C38EF873338EF87123022B04BF0023DE
:101E78000B71FFF7CBFD002008BD01F07F0C0CEBC8
:101E88008C0E00EBCE0E282101FB0C01CEF8202190
:101E9800012201F58C718EF818C18EF81B31AEF84D
:101EA8001EC18EF81921E0E708B54BB2002B01F0EE
:101EB8007F020CDB4FF0280C0CFB010101F55C7173
:101EC800DB0F0A704B70FFF7DBFD002008BD2821EF
:101ED80001FB020101F58C71F2E700BF10B501F0BA
:101EE8007F0404EB840C00EBCC0C2821CCF8843361
:101EF8000023CCF87C238CF87043CCF888338CF81A
:101F08007133C37801FB0401012B01F55C7108BF33
:101F1800CCF880231CB9FFF77FFE002010BDFFF727
:101F2800CBFD002010BD00BF10B501F07F0404EB0D
:101F3800840E00EBCE0ECEE94922CEF82C310023D8
:101F4800CEF83031282303FB040C01238EF8184106
:101F58000CF58C718EF819311CB9FFF75DFE002065
:101F680010BDFFF7A9FD002010BD00BF08B54BB29A
:101F7800002B01F07F0210DB4FF0280C0CFB010155
:101F880001F55C71DB0F4FF0010C81F802C00A709B
:101F98004B70FFF7AFFE002008BD282101FB0201AE
:101FA80001F58C71EEE700BF4BB2002B10B501F0C4
:101FB8007F020DDB282404FB010101F55C7100247C
:101FC800DB0F8C700A704B70FFF7B6FE204610BD11
:101FD800282101FB020101F58C71F0E70269002359
:101FE800106861F30A130343136070472DE9F04F3B
:101FF80083B00446FFF726FC18B9002003B0BDE8FB
:10200800F08F2046FFF724FC80460028F5D0C0F367
:10201800074313F00800009340F0C280009B590763
:1020280072D418F0020F5FFA88F502D0E368022232
:102038005A61B8F1000F4FEA1867C0F2778118F4B7
:10204800006FC8F3072640F01181290708D5974B80
:102058001B682046DB689847E36808225A6101201C
:10206800EA063AD4F30600F12581B10600F1E080D2
:10207800009BDA0609D58D4B1B682046DB6998471B
:10208800E3684FF480125A610120009B9B0609D532
:10209800864B1B6820461B6A9847E3684FF400127A
:1020A8005A6101207E0609D5804B1B6820465B6A71
:1020B8009847E3684FF080425A61012069079DD52F
:1020C800E3685D686A0705D5784B1B6820469B6AFC
:1020D8009847E3685D60012090E7E3689A6922F019
:1020E80010029A61D3F82080C8F34342022A08F00C
:1020F8000F0900F0C181062A00F0AB819A6942F00D
:1021080010029A610120ADE72046FFF73BFE8146A9
:10211800002843D0254604F118074FF0000BCDF8EE
:10212800048019F0010F2ED05FFA8BF8226904EBB6
:10213800880316699869536B806823FA08F3DB01F2
:10214800DBB23343034013F00106D8B200F0098133
:10215800564B506B39681B684FF0010C0CFA0BFAA0
:1021680020EA0A005B685063C1F808C0204641466F
:102178009847E378012B00F09D81720640F1F780C3
:102188003B6840229A605FEA59090BF1010B05F19F
:10219800280507F10407C4D1DDF80480012040E7D1
:1021A8002046FFF7E1FD0546002800F04481DFF8EE
:1021B800FC90CDF8048004F15406A34600274FF0A4
:1021C800020A08E06D0807F1010706F104060BF1A1
:1021D800280B00F02E81EB07F4D55FFA87F841460B
:1021E8002046FFF7C7FDC3B2C00740F1C680336879
:1021F80001229A60E278012A07D11A69DBF878335C
:10220800C2F312029B1ACBF88833D9F80030414642
:102218001B6820469847E378012BD3D1002FD1D1F2
:1022280094F81131052BCDD12046FFF7B1FDC9E750
:102238002046FFF7D7FBE3682046DE68FFF7C4FBBC
:1022480003280CBF0922052262F38D260CBF002249
:102258000122A270E3680CBF4FF400724022A280F2
:102268004FF40052DE6001205A6101E70F4B1B68F2
:1022780020465B69984723699968E3684FF40062D0
:102288005A61A37A83B1C8070ED5D4F80C3108492E
:102298001A6842F001021A601A6842F003021A60D2
:1022A8000B6943F006030B610120CEE6B80000205D
:1022B80000ED00E0226953684FF0000823F00103A5
:1022C800536041462046FFF785FA627841465AB185
:1022D80004F1140303EB820CFF2253F8040F82600D
:1022E800D86B63458260F8D10F22236962F307082F
:1022F8002F2262F307014FF0FF329A614FF001126B
:10230800DA61C3F8148019611A686FF30A121A6047
:102318002046FFF73DFD784BE2681B684FF480517B
:102328001B6951612046984701209EE6A37A43B174
:10233800D4F80C31D4F80C2123F0030161F307031E
:1023480013606D4B22691B689969536823F0010378
:10235800536020468847E3684FF000425A610120E5
:102368006DE642070FD53B6804229A601646B3070C
:102378000ED53B6802229A6005E7990753D5336862
:10238800C3F808A01EE7030747D53A6808269660F1
:1023980036067FF5F8AED7F800C0D5F82031DCF85E
:1023A8001860D5E94B021FFA86FE861AB34228BF89
:1023B80033460333BEEB930F664688BF614624D885
:1023C80028E0D5F82031D5F824119E4228BF1E46B2
:1023D800B3B242462046FFF7BFF8D5F83021D5F80A
:1023E8002431D5F82C01324406F1030A33448242E1
:1023F8004FEA9A0AC5F82431C5F8302167D23968FE
:102408008B699BB29A450E4604D28242A0EB020623
:10241800D7D30E468023B360B5E6C60662D53B68BF
:1024280010229A60AFE65A0707D5336804229A60EB
:10243800C8E6DDF804800120F0E518077FF5C2AE94
:10244800D9F8003020469B689847336808229A607C
:10245800B8E609EB890904EBC909082204F5B96152
:102468002046FFF78DF8D9F88833C8F30A18434493
:10247800C9F88833E36841E647F6F07212EA080FB4
:102488003FF43CAE09EB890904EBC909C8F30A1803
:10249800D9F87C1342462046FFF772F8D9F87C3306
:1024A8004344C9F87C33D9F888334344C9F888339E
:1024B800E36823E6BBF1000F7FF45FAE94F81131B7
:1024C800042B7FF45AAE2046FFF762FC55E62169DB
:1024D80095F818014B6B3E680122824023EA0203FB
:1024E8004B6397E7810658BF06467FF546AE3B68C3
:1024F80020229A6047E600BFB800002010B5074CBC
:102508002068FF2807D0064A064B12689B680649D0
:102518009847FF232360002010BD00BF540000200F
:10252800E40800209C000020F8080020432301480C
:102538000B807047580000201F4A1368052B70B5A0
:1025480003F1010102D01160002070BD1B4D2978F4
:10255800002301291360F7D0194E1A4A316814680C
:10256800B1F5006F1FD0A14222D0174A98BF641A54
:1025780012FA81F288BFC1F50064D0F8EC35B3F8DF
:102588003930A3420BD21944E41A31600F490C6068
:10259800012129708121FFF7C7FC002070BD21446B
:1025A80023460024F1E7336014B1074A1946E4E7EB
:1025B80000232B70C8E700BFE0080020E8080020CF
:1025C800F0080020F408002000090020EC08002092
:1025D80001EB810138B500EBC101094D094BB1F898
:1025E80088131B69044628469847D4F8EC352A46D0
:1025F800B3F8403001212046FFF770FC002038BDB9
:10260800001100209C00002070B50B7813F06002C8
:102618000C46054611D0202A18D1CA884E78CAB16E
:102628001B0634D51F4B20499B6830469847E288E3
:102638001D49284600F0FEFA06E04B780A2B0FD019
:102648000B2B1FD0062B10D0002070BD00F070FDA2
:10265800022070BD134B11469B6830469847F3E73C
:102668001249012200F0E6FAEEE74B881B0A212BFB
:1026780003D1CA883A2A28BF3A220D49284600F0D1
:10268800D9FAE1E78B7853B9084A1360DCE70949BE
:10269800094B0E6004491A6000F0E4FAD4E700F030
:1026A80047FDD1E79C000020F808002040110020D9
:1026B8006A00002054000020E408002010B58121A1
:1026C8000446FFF7F1FB01212046FFF7EDFB8221CD
:1026D8002046FFF7E9FB024B5B689847002010BDD6
:1026E8009C000020D0F8EC2510B50446B2F839203B
:1026F80002238121FFF7A2FBD4F8EC250223B2F8CC
:10270800402001212046FFF799FB0323082282215C
:102718002046FFF793FB084A084B022191801B686B
:102728009847D4F8EC35064AB3F8403001212046E2
:10273800FFF7D4FB002010BDEC0000209C00002017
:102748000011002070B5124B1A78012A01D0002020
:1027580070BD104C216899B1D0F8EC350E4DB3F826
:1027680039302A6899420ED9C91AD61821600B4CFB
:102778002E60812114FA82F2FFF7D6FB002070BD8B
:102788001970002070BD56180B460021EEE700BFF7
:10279800E8080020EC080020F008002000090020CC
:1027A80000207047202810B415D021280FD1114BD4
:1027B8001A680A701A68120A4A705A888A70DA788F
:1027C800CA701A790A715A794A719B798B710020FB
:1027D8005DF8044B7047074B91F804C048798A7933
:1027E8000C68587183F804C09A711C6000205DF869
:1027F800044B7047B000002010B599B100EB010EF2
:10280800094C0A4901380EF1FF3E0A6810F801CF59
:1028180004F802C0531CB3F5006F08BF00238645B7
:102828000B60F2D1002010BD00090020F408002040
:1028380070B5E9B10F4B104C1E6822680F4D01446A
:1028480001F1FF3E013802E070451A4610D0531CD2
:10285800B3F5806F04BF00210B4610F801CF05F8CF
:1028680002C018BF19469E422160EDD1022070BDFA
:10287800002070BD44110020481100204C11002098
:1028880000207047064A116810B44B1C054CB3F57C
:10289800006F605408BF00235DF8044B1360704755
:1028A800F408002000090020034A044B10681B6844
:1028B800C01A18BF01207047481100204411002099
:1028C8000C4B0D4A10B411681C688C4203460DD09D
:1028D8000A4C615C197013685DF8044B01200344CD
:1028E800B3F5806F08BF00231360704700205DF8C0
:1028F800044B704748110020441100204C1100205F
:1029080010B5D0F8E43504461B699847032384F8CA
:102918001231002010BD00BF08B50422D0F8E435FC
:1029280080F81221DB689847002008BD08B5D0F868
:10293800E035DB6903B19847002008BD08B5D0F839
:10294800E0351B6A9847002008BD00BF08B5D0F8DD
:10295800E0355B6A9847002008BD00BF08B5D0F88D
:10296800E4355B699847002008BD00BFD0F8E4351E
:1029780010B504469B699847D4F8E03500215B6898
:1029880020469847002010BD002310B5194604467C
:102998004022FFF753FA8021002340222046FFF708
:1029A8004DFAD4F8E435A078012284F812215B6846
:1029B8009847002010BD00BF10B582B06946044694
:1029C80000F0A4FB9DF8001001F01F03012B0AD0B2
:1029D800022B16D073B101F080012046FFF7C6FA2A
:1029E800002002B010BD6946204600F0F3FA00202E
:1029F80002B010BD6946204600F06CF9002002B014
:102A080010BD6946204600F00FFB002002B010BD43
:102A180038B5044629B990F81131022B0DD00020A1
:102A280038BDD0F8E0355B69002BF8D090F812215A
:102A3800032AF4D19847002038BDD0F83421D0F8C3
:102A480020319A4211D9C078D4F824110128A2EB78
:102A5800030208BFC918C4F8342108BFC4F82411F8
:102A680092B2204600F0F6F8D9E7D0F83821B2FB48
:102A7800F3F503FB15255DB9934209D8D0F83C312D
:102A88009A4205D22A4600F0E5F8C4F83C51C6E758
:102A9800D4F8E035DB681BB194F81221032A03D07F
:102AA800204600F007F9BAE720469847F8E700BF44
:102AB80010B5044629B990F81131032B0DD0002028
:102AC80010BDD0F8E0359B69002BF8D090F81221A2
:102AD800032AF4D19847002010BDD0F88C33D0F8E1
:102AE8007823934213D9C078D4F87C130128A3EB38
:102AF800020304BF8918C4F87C139A4228BF1A46F7
:102B0800C4F88C3392B2204600F0BCF8D7E7D0F86E
:102B1800E0351B691BB190F81221032A03D0204627
:102B280000F0B8F8CBE79847F9E700BF2DE9F04186
:102B3800044615461E46DDF818800F46FEF782FC4F
:102B480020463946C4F8E065C4F8E485C4F8E85579
:102B5800FFF72EF9D4F8E4351B6898472046BDE8FE
:102B6800F041FEF7B5BC00BFD0F8E03510B504461B
:102B78001B689847D4F8E4359B689847002010BD37
:102B880008B5D0F8E0355B689847002008BD00BF5D
:102B9800122301480B807047EC00002004230148F1
:102BA8000B807047E800002010B5044C04480A4622
:102BB800214600F0D7FA204610BD00BF501500206E
:102BC8001032000810B5044C04480A46214600F0AB
:102BD800C9FA204610BD00BF501500202832000851
:102BE80010B5044C04480A46214600F0BBFA2046BA
:102BF80010BD00BF501500203C32000810B5044C31
:102C080004480A46214600F0ADFA204610BD00BF30
:102C1800501500204C32000810B5044C04480A46F0
:102C2800214600F09FFA204610BD00BF5015002035
:102C38005832000808B513460A460221C0F8343154
:102C4800C0F8383180F811110021FFF76DF9002024
:102C580008BD00BF08B513460A460021FFF764F90E
:102C6800002008BD08B513460A460321C0F88C3376
:102C7800C0F8903380F811110021FFF72FF90020D8
:102C880008BD00BF08B513460A460021FFF726F91C
:102C9800002008BD10B50023042104461A4680F818
:102CA80011111946FFF740F92046FFF771F8002087
:102CB80010BD00BF10B50023052104461A4680F850
:102CC80011111946FFF70AF92046FFF761F80020AD
:102CD80010BD00BF70B54B7882B00C460546092B75
:102CE80013D8DFE803F03142125712227012870519
:102CF8008978AE4E0129317007D890F81231022B2D
:102D080000F0B780032B00F0A18094F90030002B6D
:102D180001DBE3889BB980212846FFF727F928467D
:102D2800FFF736F8002002B070BD8B88002BECD17D
:102D3800CB88002B73D094F90030002BEBDB0021FB
:102D48002846FFF713F9EAE790F81231023B012B06
:102D5800DBD8D0F814319649002B0CBF012303238C
:102D680001220B60FFF766FFDCE790F81231023BA7
:102D7800012BCAD84B88012BD4D1D0F8E0350022DA
:102D88009B68C0F814212146284698472846FFF733
:102D980081FFC7E74B88012B00F0FE80022BC1D1D1
:102DA8008B88DAB2002ABDD101691B0A4A68013B47
:102DB8001046042B00F2DA80DFE813F0DF00DA00B7
:102DC800D400E900E4004A88130A013B062B9CD88A
:102DD80001A151F823F000BFDB2E00089F2E000848
:102DE800FB2E0008132D0008132D0008132D0008D2
:102DF800132D0008CA88012A06D091F90030002B4B
:102E080089DB002A87D09AE790F81231022B3ED04E
:102E1800032B90D100F58871FFF70CFF82E790F83B
:102E280012314C88032B3FF476AF04F07F0480F80E
:102E380013412146FFF7D2F82846FFF72BFF002C55
:102E480000F0B080022385F812316BE7002900F00A
:102E5800B38090F81011012998D0FFF791FE3178CE
:102E680085F810112846FFF77FFE2846FFF712FF66
:102E780058E700298AD00121032380F8101180F82F
:102E88001231FFF771FE2846FFF704FF4AE7494968
:102E9800FFF7D0FE46E7D0F8E03580789B6A0DF161
:102EA8000601984702234370C5F8EC05BDF80630C3
:102EB800002B3FF437AFE288002A3FF433AF9A4241
:102EC80028BF1A4601462846ADF80620FFF7B2FE8D
:102ED80028E7D0F8E83580781B680DF10601984797
:102EE800E288402A73D095F81231012BDED10823ED
:102EF800E2E7D2B2052A3FF608AFDFE802F02B235B
:102F08001B130B03D0F8E83580789B690DF1060197
:102F18009847CBE7D0F8E83580785B690DF1060172
:102F28009847C3E7D0F8E83580781B690DF10601AA
:102F38009847BBE7D0F8E8358078DB680DF10601E3
:102F48009847B3E7D0F8E83580789B680DF106011B
:102F58009847ABE7D0F8E83580785B680DF1060153
:102F68009847A3E7032363F3061002464A600DE778
:102F7800022363F306100246F8E7012363F3061001
:102F88000246F3E7052363F306100246EEE704233F
:102F980063F306100246E9E7D0F8E025C0F81431DB
:102FA8009368F0E6012385F81231BBE64C15002042
:102FB8008415002088150020022380F8123180F83B
:102FC8001011FFF7DDFD2846FFF764FEAAE6082387
:102FD80075E700BF38B590F81231032B04460D464B
:102FE8000AD10B79012B07D8D0F8E0359B689847B0
:102FF800EB88ABB1002038BD95F90030002B01DB20
:10300800EB8843B980212046FEF7B0FF2046FEF743
:10301800BFFE002038BD00212046FEF7A7FFF5E7D8
:103028002046FFF737FEE5E738B50C468A8863780F
:10303800012B0546D1B204D0032B35D0BBB10020FB
:1030480038BD90F81231022B15D0032B43D094F9D8
:103058000030002B47DBE388002B44D000212846B2
:10306800FEF784FF2846FEF793FE002038BD90F84F
:103078001231022B04D14A06E1D0FEF777FFDEE7D2
:10308800032BE4D1130633D401EB810100EBC1011A
:1030980091F87233003B18BF01231B4902222846CE
:1030A8000B60FFF7C7FDCAE790F81231022BE2D098
:1030B800032BCCD163881BB94A0601D0FEF756FF13
:1030C800D5F8E03521469B68284698472846FFF7FB
:1030D800E1FD002038BD6388002BB0D14B06F5D048
:1030E800FEF762FFECE780212846FEF73FFFB9E7CD
:1030F80001F07F0101EB810100EBC10191F81A3168
:10310800003B18BF0123C8E78C150020B0F8C8356C
:103118000B80B0F8CA354B80B0F8CC358B80B0F84E
:10312800CE35CB800122C0F83C3180F811217047A0
:1031380010B591F90030002B044601DBCB8843B968
:1031480020468021FEF712FF2046BDE81040FEF71A
:103158001FBE0021FEF70AFF2046BDE81040FEF71B
:1031680017BE00BF30B400B3037803B303461C4650
:1031780013F8015F002DFAD1C0F101032344DBB23B
:1031880001335B00DCB2138003230C704B700478AE
:103198005CB1022300255A1CD2B2CC548D5410F8CD
:1031A800014F0233DBB2002CF5D130BC704702244A
:1031B8002346E8E7014B01221A707047901500205A
:1031C800014B01221A70704790150020014B022212
:1031D8001A70704790150020014B01221A70704731
:1031E80090150020014B01221A707047901500209D
:1031F800014B01221A70704790150020014B0122E3
:103208001A7070479015002053544D333220566978
:10321800727475616C20436F6D506F72740000009A
:1032280053544D6963726F656C656374726F6E6930
:103238006373000030303030303030303035304358
:103248000000000056435020436F6E666967000017
:1032580056435020496E74657266616365000000CC
:10326800FFFF000000000000010203040102030444
:10327800060708090000000000000000010203041E
:103288000607080900BD0105ED260008C526000847
:103298001126000800000000052500084D27000839
:1032A800D9250008412500080000000000000000A2
:1032B80035250008FF00000009024300020100C094
:1032C8003209040000010202010005240010010572
:1032D80024010001042402020524060001070582D6
:1032E800030800FF09040100020A000000070501A5
:1032F800024000000705810240000000A9270008DD
:1033080089280008AD270008012800083928000886
:1033180000C2010000000800BC000020B92A000813
:10332800192A0008C1290008352900089129000830
:1033380021290008092900084529000855290008FD
:103348006529000875290008040309041201000210
:1033580000000040830440570002010203010000FE
:10336800992B0008A52B0008CD2B0008B12B0008CD
:10337800E92B0008052C0008212C0008BD310008A5
:10338800C9310008D531000805320008E1310008CC
:08339800ED310008F9310008D5
:040000050800084D9A
:00000001FF
